{
  "contractName": "Election",
  "abi": [
    {
      "anonymous": false,
      "inputs": [
        {
          "indexed": true,
          "internalType": "address",
          "name": "previousOwner",
          "type": "address"
        },
        {
          "indexed": true,
          "internalType": "address",
          "name": "newOwner",
          "type": "address"
        }
      ],
      "name": "OwnershipTransferred",
      "type": "event"
    },
    {
      "constant": true,
      "inputs": [],
      "name": "isOwner",
      "outputs": [
        {
          "internalType": "bool",
          "name": "",
          "type": "bool"
        }
      ],
      "payable": false,
      "stateMutability": "view",
      "type": "function"
    },
    {
      "constant": true,
      "inputs": [],
      "name": "owner",
      "outputs": [
        {
          "internalType": "address",
          "name": "",
          "type": "address"
        }
      ],
      "payable": false,
      "stateMutability": "view",
      "type": "function"
    },
    {
      "constant": false,
      "inputs": [],
      "name": "renounceOwnership",
      "outputs": [],
      "payable": false,
      "stateMutability": "nonpayable",
      "type": "function"
    },
    {
      "constant": false,
      "inputs": [
        {
          "internalType": "address",
          "name": "newOwner",
          "type": "address"
        }
      ],
      "name": "transferOwnership",
      "outputs": [],
      "payable": false,
      "stateMutability": "nonpayable",
      "type": "function"
    },
    {
      "constant": false,
      "inputs": [
        {
          "internalType": "string",
          "name": "_candidate_name",
          "type": "string"
        }
      ],
      "name": "setCandidates",
      "outputs": [],
      "payable": false,
      "stateMutability": "nonpayable",
      "type": "function"
    },
    {
      "constant": false,
      "inputs": [
        {
          "internalType": "uint256",
          "name": "_candidate_id",
          "type": "uint256"
        }
      ],
      "name": "voteforParticiten",
      "outputs": [],
      "payable": false,
      "stateMutability": "nonpayable",
      "type": "function"
    },
    {
      "constant": true,
      "inputs": [],
      "name": "getLength",
      "outputs": [
        {
          "internalType": "string",
          "name": "",
          "type": "string"
        },
        {
          "internalType": "uint256",
          "name": "",
          "type": "uint256"
        }
      ],
      "payable": false,
      "stateMutability": "view",
      "type": "function"
    },
    {
      "constant": true,
      "inputs": [
        {
          "internalType": "uint256",
          "name": "count",
          "type": "uint256"
        }
      ],
      "name": "getallcandidate",
      "outputs": [
        {
          "internalType": "string",
          "name": "",
          "type": "string"
        }
      ],
      "payable": false,
      "stateMutability": "view",
      "type": "function"
    },
    {
      "constant": true,
      "inputs": [
        {
          "internalType": "uint256",
          "name": "n",
          "type": "uint256"
        }
      ],
      "name": "showresult",
      "outputs": [
        {
          "components": [
            {
              "internalType": "string",
              "name": "candidate_name",
              "type": "string"
            },
            {
              "internalType": "uint256",
              "name": "VoteCount",
              "type": "uint256"
            }
          ],
          "internalType": "struct Election.Candidates[]",
          "name": "",
          "type": "tuple[]"
        }
      ],
      "payable": false,
      "stateMutability": "view",
      "type": "function"
    }
  ],
  "bytecode": "0x6080604052336000806101000a81548173ffffffffffffffffffffffffffffffffffffffff021916908373ffffffffffffffffffffffffffffffffffffffff1602179055506000809054906101000a900473ffffffffffffffffffffffffffffffffffffffff1673ffffffffffffffffffffffffffffffffffffffff16600073ffffffffffffffffffffffffffffffffffffffff167f8be0079c531659141344cd1fd0a4f28419497f9722a3daafe3b4186f6b6457e060405160405180910390a3610d83806100cf6000396000f3fe608060405234801561001057600080fd5b50600436106100935760003560e01c80638f32d59b116100665780638f32d59b1461010c578063be1c766b1461012a578063cff3306014610149578063eb32fd5614610165578063f2fde38b1461019557610093565b80631fb34b44146100985780636a489689146100c8578063715018a6146100e45780638da5cb5b146100ee575b600080fd5b6100b260048036036100ad9190810190610966565b6101b1565b6040516100bf9190610b5b565b60405180910390f35b6100e260048036036100dd9190810190610925565b610271565b005b6100ec6102f2565b005b6100f66103c2565b6040516101039190610b03565b60405180910390f35b6101146103eb565b6040516101219190610b40565b60405180910390f35b610132610442565b604051610140929190610b7d565b60405180910390f35b610163600480360361015e9190810190610966565b61046a565b005b61017f600480360361017a9190810190610966565b61052c565b60405161018c9190610b1e565b60405180910390f35b6101af60048036036101aa91908101906108fc565b6106aa565b005b6060600182815481106101c057fe5b90600052602060002090600202016000018054600181600116156101000203166002900480601f0160208091040260200160405190810160405280929190818152602001828054600181600116156101000203166002900480156102655780601f1061023a57610100808354040283529160200191610265565b820191906000526020600020905b81548152906001019060200180831161024857829003601f168201915b50505050509050919050565b6102796103eb565b61028257600080fd5b6001604051806040016040528083815260200160008152509080600181540180825580915050906001820390600052602060002090600202016000909192909190915060008201518160000190805190602001906102e19291906107bf565b506020820151816001015550505050565b6102fa6103eb565b61030357600080fd5b600073ffffffffffffffffffffffffffffffffffffffff166000809054906101000a900473ffffffffffffffffffffffffffffffffffffffff1673ffffffffffffffffffffffffffffffffffffffff167f8be0079c531659141344cd1fd0a4f28419497f9722a3daafe3b4186f6b6457e060405160405180910390a360008060006101000a81548173ffffffffffffffffffffffffffffffffffffffff021916908373ffffffffffffffffffffffffffffffffffffffff160217905550565b60008060009054906101000a900473ffffffffffffffffffffffffffffffffffffffff16905090565b60008060009054906101000a900473ffffffffffffffffffffffffffffffffffffffff1673ffffffffffffffffffffffffffffffffffffffff163373ffffffffffffffffffffffffffffffffffffffff1614905090565b60606000606061045860018080549050036101b1565b90508060018054905092509250509091565b6000600260003373ffffffffffffffffffffffffffffffffffffffff1673ffffffffffffffffffffffffffffffffffffffff16815260200190815260200160002054146104b657600080fd5b600181815481106104c357fe5b9060005260206000209060020201600101600081548092919060010191905055506001600260003373ffffffffffffffffffffffffffffffffffffffff1673ffffffffffffffffffffffffffffffffffffffff1681526020019081526020016000208190555050565b606080826001805490500360405190808252806020026020018201604052801561057057816020015b61055d61083f565b8152602001906001900390816105555790505b50905060008390505b6001805490508110156106a0576001818154811061059357fe5b90600052602060002090600202016000018054600181600116156101000203166002900480601f0160208091040260200160405190810160405280929190818152602001828054600181600116156101000203166002900480156106385780601f1061060d57610100808354040283529160200191610638565b820191906000526020600020905b81548152906001019060200180831161061b57829003601f168201915b505050505082828151811061064957fe5b6020026020010151600001819052506001818154811061066557fe5b90600052602060002090600202016001015482828151811061068357fe5b602002602001015160200181815250508080600101915050610579565b5080915050919050565b6106b26103eb565b6106bb57600080fd5b6106c4816106c7565b50565b600073ffffffffffffffffffffffffffffffffffffffff168173ffffffffffffffffffffffffffffffffffffffff16141561070157600080fd5b8073ffffffffffffffffffffffffffffffffffffffff166000809054906101000a900473ffffffffffffffffffffffffffffffffffffffff1673ffffffffffffffffffffffffffffffffffffffff167f8be0079c531659141344cd1fd0a4f28419497f9722a3daafe3b4186f6b6457e060405160405180910390a3806000806101000a81548173ffffffffffffffffffffffffffffffffffffffff021916908373ffffffffffffffffffffffffffffffffffffffff16021790555050565b828054600181600116156101000203166002900490600052602060002090601f016020900481019282601f1061080057805160ff191683800117855561082e565b8280016001018555821561082e579182015b8281111561082d578251825591602001919060010190610812565b5b50905061083b9190610859565b5090565b604051806040016040528060608152602001600081525090565b61087b91905b8082111561087757600081600090555060010161085f565b5090565b90565b60008135905061088d81610d12565b92915050565b600082601f8301126108a457600080fd5b81356108b76108b282610bda565b610bad565b915080825260208301602083018583830111156108d357600080fd5b6108de838284610cbf565b50505092915050565b6000813590506108f681610d29565b92915050565b60006020828403121561090e57600080fd5b600061091c8482850161087e565b91505092915050565b60006020828403121561093757600080fd5b600082013567ffffffffffffffff81111561095157600080fd5b61095d84828501610893565b91505092915050565b60006020828403121561097857600080fd5b6000610986848285016108e7565b91505092915050565b600061099b8383610aa8565b905092915050565b6109ac81610c77565b82525050565b60006109bd82610c16565b6109c78185610c44565b9350836020820285016109d985610c06565b8060005b85811015610a1557848403895281516109f6858261098f565b9450610a0183610c37565b925060208a019950506001810190506109dd565b50829750879550505050505092915050565b610a3081610c89565b82525050565b6000610a4182610c2c565b610a4b8185610c66565b9350610a5b818560208601610cce565b610a6481610d01565b840191505092915050565b6000610a7a82610c21565b610a848185610c55565b9350610a94818560208601610cce565b610a9d81610d01565b840191505092915050565b60006040830160008301518482036000860152610ac58282610a6f565b9150506020830151610ada6020860182610ae5565b508091505092915050565b610aee81610cb5565b82525050565b610afd81610cb5565b82525050565b6000602082019050610b1860008301846109a3565b92915050565b60006020820190508181036000830152610b3881846109b2565b905092915050565b6000602082019050610b556000830184610a27565b92915050565b60006020820190508181036000830152610b758184610a36565b905092915050565b60006040820190508181036000830152610b978185610a36565b9050610ba66020830184610af4565b9392505050565b6000604051905081810181811067ffffffffffffffff82111715610bd057600080fd5b8060405250919050565b600067ffffffffffffffff821115610bf157600080fd5b601f19601f8301169050602081019050919050565b6000819050602082019050919050565b600081519050919050565b600081519050919050565b600081519050919050565b6000602082019050919050565b600082825260208201905092915050565b600082825260208201905092915050565b600082825260208201905092915050565b6000610c8282610c95565b9050919050565b60008115159050919050565b600073ffffffffffffffffffffffffffffffffffffffff82169050919050565b6000819050919050565b82818337600083830152505050565b60005b83811015610cec578082015181840152602081019050610cd1565b83811115610cfb576000848401525b50505050565b6000601f19601f8301169050919050565b610d1b81610c77565b8114610d2657600080fd5b50565b610d3281610cb5565b8114610d3d57600080fd5b5056fea365627a7a72315820031ee30a9f75b74c3e400a90910df1a2fd0f685689d96ea349fca226acb922f46c6578706572696d656e74616cf564736f6c63430005100040",
  "source": "//SPDX-License-Identifier: UNLICENSED\r\npragma experimental ABIEncoderV2;\r\npragma solidity >=0.5.0 <0.9.0;\r\nimport \"./onlyonwer.sol\";\r\n\r\ncontract Election is Ownable {\r\n    /**  \r\n@dev candidates will the type of  candidates deitles\r\n*/\r\n    struct Candidates {\r\n        string candidate_name;\r\n        uint256 VoteCount;\r\n    }\r\n\r\n    /**  \r\n    @dev this will stroe the candidtaes detiles\r\n    */\r\n    Candidates[] candidatesdetiles;\r\n\r\n    mapping(address => uint256) Voted;\r\n\r\n    /**  \r\n@param _candidate_name will be the parties  name of election\r\n@dev this will set the candidates name and vote count \r\n*/\r\n    function setCandidates(string memory _candidate_name) public onlyOwner {\r\n        candidatesdetiles.push(Candidates(_candidate_name, 0));\r\n    }\r\n\r\n    /**  \r\n@dev the voter can vote for thier parites\r\n*/\r\n    function voteforParticiten(uint256 _candidate_id) public {\r\n        require(Voted[msg.sender] == 0);\r\n        candidatesdetiles[_candidate_id].VoteCount++;\r\n        Voted[msg.sender] = 1;\r\n    }\r\n\r\n    function getLength() public view returns (string memory, uint256) {\r\n        string memory name = getallcandidate(candidatesdetiles.length - 1);\r\n        return (name, candidatesdetiles.length);\r\n    }\r\n\r\n    function getallcandidate(uint256 count)\r\n        public\r\n        view\r\n        returns (string memory)\r\n    {\r\n        return candidatesdetiles[count].candidate_name;\r\n    }\r\n\r\n    function showresult(uint256 n) public view returns (Candidates[] memory) {\r\n        Candidates[] memory result =\r\n            new Candidates[](candidatesdetiles.length - n);\r\n        for (uint256 i = n; i < candidatesdetiles.length; i++) {\r\n            result[i].candidate_name = candidatesdetiles[i].candidate_name;\r\n            result[i].VoteCount = candidatesdetiles[i].VoteCount;\r\n        }\r\n        return result;\r\n    }\r\n}\r\n",
  "sourcePath": "C:/Users/Akhilesh Goswami/Desktop/whatsapp-clone-react-main/src/contracts/Election.sol",
  "compiler": {
    "name": "solc",
    "version": "0.5.16+commit.9c3226ce.Emscripten.clang"
  },
  "schemaVersion": "3.4.1",
  "updatedAt": "2021-06-07T15:24:22.362Z",
  "networkType": "ethereum",
  "devdoc": {
    "methods": {
      "isOwner()": {
        "return": "true if `msg.sender` is the owner of the contract."
      },
      "owner()": {
        "return": "the address of the owner."
      },
      "renounceOwnership()": {
        "details": "Allows the current owner to relinquish control of the contract."
      },
      "setCandidates(string)": {
        "details": "this will set the candidates name and vote count ",
        "params": {
          "_candidate_name": "will be the parties  name of election"
        }
      },
      "transferOwnership(address)": {
        "details": "Allows the current owner to transfer control of the contract to a newOwner.",
        "params": {
          "newOwner": "The address to transfer ownership to."
        }
      },
      "voteforParticiten(uint256)": {
        "details": "the voter can vote for thier parites"
      }
    }
  },
  "userdoc": {
    "methods": {
      "renounceOwnership()": {
        "notice": "Renouncing to ownership will leave the contract without an owner. It will not be possible to call the functions with the `onlyOwner` modifier anymore."
      }
    }
  }
}